:020000040000FA
:06000000021372020873F6
:03002B000210D1EF
:03003300020E2B8F
:030053000207A2FF
:03007B00020E0072
:1000830002080401010000000000F8FF07FFFF0061
:10009300000504000000030001FFFFFFFF004510FF
:1000A3001410270000800000002801000038AD0B69
:1000B3000010000080110018000020FD000206FF60
:1000C300FF1E202B1E0000000000000000000000A7
:1000D3000000000000000000000000FF14001400F6
:1000E300450032000100E8030A000A000A000A0082
:1000F3000A001E000104010C000201B7C3053FC240
:100103000204010C000200000002A7C3030401075C
:10011300010200000002ABC30404010C0002000052
:100123000001BDC3010400007F14000000E80300C8
:1001330000FFFFD0140188130000E80300006400EF
:100143006400B801A0BB0D00A0BB0D0002020207B2
:100153000401051E02051E020A0A01010808010323
:10016300B80B02803E0102FEFFE8030A050001FF0F
:10017300FF020A011401E00100B0423BAAB83F8C20
:10018300906339AA0CA33A00941E3C8042633DCF8E
:10019300FE753E1572313FF304353F8096184B00D0
:1001A3000080BF2292D43EDD9B2A3F04000040FF23
:1001B300FF7F7FFFFF7FFF010080341872313F0212
:1001C300000000050301010F030003000300030007
:1001D3000300030003000300030005000A001400EA
:1001E30028004F009E000000A630000000007A2F78
:1001F30000000000FF000000FF001213A060461281
:1002030013BE603DE9687008F618F618F618F62272
:10021300748067F7120231090909748067F72212A3
:1002230013BE601D1213A07005191919801A12123A
:100233005E701F121272C37003E6673319191940F7
:10024300071818182208080874FFF618F618F61885
:10025300F622121272601712143E702192F01214D9
:100263002C7019501720F014080808090909E7F63B
:100273001819E7F61819E7F61819E7F62212142CDD
:1002830060E6E869701F0808E62480F608E436F69D
:1002930018547FB47F0CE654806007F6E418F61810
:1002A300F622181822E9C6CC08C6CD08C6CE08C661
:1002B300CFC0E0E8C0E0EAC0E0EBC0E009E9F8093C
:1002C300E7FA09E7FBE6F918E6F8C3EC98ED99EECF
:1002D3009AEBC2E7F5F0EFC2E795F0500E600CEB36
:1002E300CFFBEACEFAE9CDF9E8CCF8EAA2E7D2E708
:1002F300FAEB33FB13F5F0EEA2E7D2E7FEEF33FFA1
:10030300C5F013A2E730E601B313C5F0C3C0E0C0E4
:10031300F07F00C39BFB605E9418600F401D146068
:100323001AD0E023F9D0E0F80204038AF0E9486028
:1003330003D2F0E4AFF0FAF9F8803BEB30E40D8937
:10034300F0EA6003D2F0E4AFF0F9CAF8EB30E30D62
:1003530088F0EF6002D2F0AFF0E4CAC9F8EB5407BB
:100363006014FBC3EA13FAE913F9E813F8EF135027
:1003730002D2E0FFDBEDD0E0C0E030E739C3E49F19
:10038300FFF5F0EC98FC42F0ED99FD42F0EE9AFE99
:1003930042F0D0E0F9D0E0F8E5F0607AE923F9EE35
:1003A30020E742D8028067C3EF33FFEC33FCED3321
:1003B300FDEE33FE80EAEC28FCED39FDEE3AFED08B
:1003C300E023F9D0E0F84002801BC3EE13FEED13E7
:1003D300FDEC13FCEF135002D2E0FF08B800067FD8
:1003E3007F74FF802EEF3350178CF020F0026010E3
:1003F3000CBC000C0DBD00080EBE000408E860DF55
:10040300E933E813FFEE2313FE4F4D4C8008E95404
:1004130080FFE4FEFDFCEE33EF33F47004FCFD7E5D
:1004230080D0E0FBD0E0FAD0E0F8D0E0CFC618CE21
:10043300C618CDC618CCC6F9221213BE70041818FC
:1004430018221213A0700D74FFF61819F61819F676
:100453001819F622E7548066F612142C700F121442
:100463003E70F014F608F608F608F680D112143E32
:10047300700CF608F608768008E6447F80EC1212CA
:1004830075700C12126160BFE65480F6E480BB12F3
:100493001261700519191980A5E869700C763F1867
:1004A300768018F618F6E8F922E6CDC0E018ECC01D
:1004B300E0E633CD33CDD313F6E719FCE71919334F
:1004C300CC33C3947F400ECD9D502408E65480F670
:1004D300E418F6800FF4043D14501408E6447FF644
:1004E300187680E418F618F6D0E0FCD0E0FD22CCB4
:1004F300D313CCFD18E4C6CBC0E018E4C6CAC0E0F1
:100503000808ED08C633E613F618E433C675F0039E
:10051300C3CA97CA09CB97CB199C40047D08802E88
:10052300BD00030205E516B6FF050606081618C347
:10053300CA33CACB33CB33CA27CA09CB37CB193C0F
:10054300C37D08803E187D0820E75CC633C6CA33E6
:10055300CACB33CB33DDF1D5F0EB30E77BCA97CA97
:1005630009CB974ACB199C406F4B7025E620E021BD
:100573008066187D08C3CA97CA09CB97CB199CD349
:10058300C633C6CA33CACB33CB3350C9DDE7D5F044
:10059300E1D3E4C636C608C636C608C636C608C69C
:1005A30036C61818188031C3CA97CA09CB97CB1916
:1005B3009CB34097C633C6CA33CACB33CB33DD347F
:1005C300D5F02EC6A2E0C640C8CA27CA09CB371940
:1005D3004A70BECB3CB480B90808E63308E6336002
:1005E3001F181818D0E0FAD0E0FBD0E0FCD0E0FDF3
:1005F30022187D08CA27CA09CB37CB193CD3808080
:1006030013F618E4B67F11F618B6FF0EF618C604F3
:1006130070D20808768080CAF618F618F680C500EE
:100623001213BE604F1213A06012E7548066F612D5
:10063300125E701112143E703B090909F4F618F6A4
:1006430018F618F622121272701512142C080808E4
:1006530060EAE6447FF618768018E4F618F622126C
:10066300142C601612143E7012E4F608F608F6080D
:10067300E65480F609090918181822EAC0E0EBC00D
:10068300E0ECC0E0EDC0E0E687F0A4FBACF008E6E8
:1006930087F0A42CFCE435F0FA1809E687F0A42CC3
:1006A3004B60027401CA35F0FCE433FB09E687F0C2
:1006B300D2F7A42CCB35F0FC1908E687F0A42BCC99
:1006C30035F0FBE433FD0819E687F0D2E7A42C4AA2
:1006D300CB35F0CD3400FC09E687F0D2E7A42DCC6E
:1006E30035F0FDE433FA0918E687F0D2F7A42CCDF0
:1006F30035F0CA3400FC08E687F0D2E7D2F7A42A23
:10070300CC35F07A7E20E70B0ACB33CBCD33CDCC7F
:1007130033CC33CB3350147004ED30E00ED2F1E41C
:10072300CD3DCDCC3CCC3B5005DA05C2F1EB547F3B
:10073300C63308E63392F0FBE73309E733C39A5035
:100743002D2B70190C0D4C4D70151806E608C3338C
:10075300700D20F10AA2F013F6E418800B4024E494
:10076300F630F002768018F618F618F68024D33B9C
:1007730014501074FFA2F013F6187680E418F618DC
:10078300F6800FA2F013F618E63303F618ECF6180A
:10079300EDF6D0E0FDD0E0FCD0E0FBD0E0FA22C0E3
:1007A300E074F1120C0EA2AFE433F509D2AF85A7C2
:1007B30008AFA1EF5508FE74105E6006121873753A
:1007C300A1EF74085E600812187975A1F78024EF11
:1007D300A2E092F0E508A2E082F05017906198E061
:1007E300F8900661E0C398A2D265D0335002E8F0D6
:1007F30075A1FE752300E509A2E092AF7F02020C0A
:100803006DC0E074F2120C0EA2AFE433FED2AF90CF
:1008130061A4E0F8759B00E5915854086008759150
:10082300F71218C78023E59158541060087591EFAB
:100833001218CD8014E591A2E092F0E8A2E082F0D4
:100843005007E0C2E0F0121A239061A3E0F8E5E953
:10085300585404600E1219F975E9FB906193E0A2F4
:10086300E640F2752300EEA2E092AF7F01020C6D29
:10087300C0E074F2120C0EA2AFE433FED2AF90616B
:10088300A5E0F8E5BF585404600675BFFB121A3B98
:1008930080D11208EA30F04312092F803E8A088B78
:1008A300098C0A8D0B78081208EA20F01430E72B24
:1008B30074FFFCFBFA747F8022E4FCFBFA748080F3
:1008C3001AB48008BC00F2BB00EF800F50EBF9E4D0
:1008D300C39AFAE49BFBE49CFCE499C6CC18C6CB10
:1008E30018C6CA18C6F922E4C9C608CAC608CBC6C0
:1008F300D3330308CCC63392F0C3947F402E9418AD
:100903004019C9B90704CACBCC225025C309CA333D
:10091300CACB33CBCC33CC33D9F422F4600DC9CC5E
:10092300C313CB13CBCA13CAD9F6CC22E4FCFBFA0C
:100933002214FCFBFA22C3E498F8E499F912097A29
:100943008026C3E49AFAE49BFBE920E7E912097ADB
:10095300E498F8E499F922C3E498F8E499F91209C0
:100963007AE498F8E499F9C3E49AFAE49BFB22EB5E
:1009730020E7CFE920E7E0B90010BB0008E88AF0E0
:1009830084F8AAF022E4FBC8FA22EB70227B10C899
:1009930033C8C933C9335007C39AC3DBF280069AFD
:1009A30050012ADBEAC833F4C8C933F4C9FA227503
:1009B300F008E4C833C8C933C933C99AC99B500482
:1009C300C92AC93BD5F0ECFBC833F4C8E4C9FA2201
:1009D300080808EAC0E0EBC0E086F0E7A4FA1809CB
:1009E30086F0E7A42AFA180986F0E7A42AFA180978
:1009F30086F0E7A42AFA1986F0E7A4FBE5F02AFAC1
:100A0300190886F0E7A42BFBE5F03AFA190886F0FB
:100A1300E7A42BFBE5F03AFA18180986F0E7A4C51A
:100A2300F02BFBE43AFA1908E7C5F0C6A426F6E56D
:100A3300F03BFBE43AFA1886F0E7A4F6E5F0082663
:100A4300F6E43B08F6E43A08F6D0E0FBD0E0FA22FD
:100A5300080808E630E711121222120A6B08080888
:100A6300C64480C618181822181818E9799EC608B3
:100A7300CAC608CBC608CCC6C370207996CACBCCED
:100A83007019798ECBCC70137986CC700EF9802ACD
:100A9300CA33CACB33CBCC33CC331930E7F2CCCB0C
:100AA300CA3350147004EA30E00DE4CA3ACACB3BAF
:100AB300CBCC3CCC500209C3E913C6CC182313C6D4
:100AC300CB18C6CA18C6F922E4CFC0E0E4CEC0E012
:100AD300E4CDC0E0E4CCC0E075F020E626F608E6FD
:100AE30033F608E633F608E633F6181818EC33FC49
:100AF300ED33FDEE33FEEF33FFC3EC9709ED9709BA
:100B0300EE9709EF97191919400FFFEC97FC09EDC0
:100B130097FD09EE97FE191906D5F0BFECF709ED1D
:100B2300F709EEF709EFF7191919D0E0FCD0E0FD4A
:100B3300D0E0FED0E0FF222521C582C0E0E52234CB
:100B4300FFC583C0E0E521C3958224F810AF088573
:100B530083228582218008858322858221D2AFCE9C
:100B6300F0A3E520F0A37808E608F0A3DEFAEFF09F
:100B7300A3E58124FAF8E608F0A3E608F0A3E60863
:100B8300F0A30808E608F0A3E608F0A31581158191
:100B9300D0E0FED0E0F8158115811581E8C0E0EEC4
:100BA300C0E022121417B90003020BF8E490050108
:100BB300786D79138002F0A3D8FCD9FA78239000DA
:100BC300867A01BA00028007E493A3F608DAF97A79
:100BD3006D7B17900087787779028015E493A3AD36
:100BE30082AE838A828B83F0A3AA82AB838D828EAB
:100BF30083D8E9D9E77582FB75837D74001210955C
:100C03007582AD75832C7400121095C0D02521C553
:100C130082C0E0E52234FFC583C0E0E521C39582AD
:100C230024F310AF088583228582218008858322DF
:100C3300858221D2AFC8F0A3E9F0A3EAF0A3EBF0D9
:100C4300A37908E709F0A3D8FAECF0A3EDF0A3EE3B
:100C5300F0A3EFF0A3D0E0F0A3D0E0F0A3D0E0F056
:100C6300A3E520F0A3E5F0F0A3228522838521826A
:100C7300E0C0E0A3E0F9A3E0FAA3E0FBA37808E077
:100C8300F608A3DFFAE0FCA3E0FDA3E0FEA3E0FF88
:100C9300A3E0C0E0A3E0C0E0A3E0F5D0A3E0F5202B
:100CA300A3E0A3F5F010AF08858322858221800895
:100CB300858322858221D2AFD082D083D0E0F8D041
:100CC300E03200002275F0108E248F25858229855D
:100CD3008328852182852283E0CEA3E0CF852982E4
:100CE300852883EBC9EAC8EDCBECCAC3E833C8E96E
:100CF30033C9EA33CAEB33CBC3EA9EF527EB9FF53F
:100D030026B35004AB26AA27EC33CCED33CDD5F074
:100D1300DAAE24AF25221213BE601C1213A0601793
:100D230012142C700712143E7001D322C0D0121477
:100D33003E7006D0D0B322C32233D0D0501430E05B
:100D4300F6C3E7960809E7960809E7960809E796C0
:100D5300B32220E0D5E6970809E6970809E6970845
:100D630009E697B322D083D082ECC0E0EDC0E0E483
:100D730093A3FCE493A3FDED4C600D120ED7EC247A
:100D8300FFFCED34FFFD80EFE493A3FCE493A3FDAC
:100D9300ED4C600D120FA0EC24FFFCED34FFFD8041
:100DA300EFD0E0FDD0E0FCE493A3C0E0E493C0E027
:100DB300221213BE601B1213A0601612142C7007AC
:100DC30012143E600CB322C0D012143E7005D0D072
:100DD30022C32233D0D0501330E0EBC3E796080987
:100DE300E7960809E7960809E7962220E0E4E697E4
:100DF3000809E6970809E6970809E69722C0E07410
:100E0300F2120C0EA2AFE433FED2AFE58AA2E35096
:100E13000579021217AD758A00C2EB752300EEA2A5
:100E2300E092AF7F01020C6DC0E074F2120C0EA2CF
:100E3300AFE433FED2AFE58BA2E05005790412177D
:100E4300AD758B00C2E880D3852283852182E0A320
:100E5300FEE0A3F5207808E0A3F608DFFAE0A3FF9D
:100E6300E0A3C0E0E0A3C0E0E0A3C0E0E0A3C0E0F3
:100E7300E0A3C0E010AF0885822185832280088526
:100E83008221858322D2AFD083D08202109BD0836C
:100E9300D082E9C0E0E493A3C386F0C5F095F0F9EE
:100EA30008E493A386F0C5F095F0700BE493A3C315
:100EB300994005E9048002A3E475F002A42582F5B4
:100EC30082E5F03583F583D0E0F9E493A3C0E0E451
:100ED30093C0E022C0E0C3E493960874019396188C
:100EE300400FE493667008087401936618700070ED
:100EF30019A3A3C3E49396087401939618A3A3407C
:100F03000DD0E0D0E0D0E0020DA4A3A3A3A3A3A33C
:100F1300D0E0227404800474028000CCC0E0EDC0F1
:100F2300E0E521C39CCCAD2250011D10AF068C21FE
:100F33008D2280068C218D22D2AF121017D0E0FDB6
:100F4300D0E0FC2274028000CCC0E0EDC0E0E521DB
:100F5300C39CCCAD2250011D10AF068C218D228085
:100F6300068C218D22D2AF120FF5D0E0FDD0E0FC2C
:100F7300221213BE60251213A0602012142C7003DA
:100F830002143E080808E76670101819E766700A2D
:100F93001819E76670041819E76622F422C0E0C046
:100FA300F088F0E493667008087401936618700083
:100FB300A8F0A3A3700BD0F0D0E0D0E0D0E0020DF6
:100FC300A4A3A3D0F0D0E022D083D082CCC0E0E4AD
:100FD30093A360061210381470FAE493A360061208
:100FE30011B81470FAD0E0FCE493A3C0E0E493C01A
:100FF300E022CAC0E0E493A3C582CCC582C583CDF9
:10100300C583F0A3C582CCC582C583CDC583DAE58C
:10101300D0E0CA22CAC0E0E0A3C582CCC582C583A2
:10102300CDC583F0A3C582CCC582C583CDC583DA84
:10103300E6D0E0CA22C0E0E493A3D39C5010E4932B
:10104300A3C39C400AD0E0D0E0D0E0020FE8A3A302
:10105300A3D0E022C008C3E096F50808A3E09642B7
:101063000808A3E096420808A3E09645087001D358
:10107300D008227009080808226016181818C6C379
:1010830033C608C633C608C633C608C633C6D5E05A
:10109300EA22C09FF59FE473D09F22D083D082C001
:1010A3009FE493C0E0740193C0E0740293F59F2220
:1010B300C5822521C582C583352210AF07F5228558
:1010C30082218007F522858221D2AFC58322C0E029
:1010D300C0D0E8C0E0A8A8D2AFC2C7752300E8A279
:1010E300E792AFD0E0F8D0D0D0E0322521F58210DE
:1010F300AF08F521400C15228008F5214002152286
:10110300D2AF852283227404800A7403800674029A
:1011130080027401C0E0F4041210EED0E01213DA7E
:101123002200C0D0252110AF08F521500C052280E4
:1011330008F52150020522D2AFD0D022BB0102E72D
:1011430022C082C08389828A83BB0003E08002E4D9
:1011530093D083D082226016080808C6C313C6182A
:10116300C613C618C613C618C613C6D5E0EA22C3EB
:10117300E0C696F608A3E0C696F608A3E0C696F680
:1011830008A3E0C696F6222521F8E43522F92225A4
:1011930021FAE43522FB222521FCE43522FD222518
:1011A3002110AF08F521400C15228008F5214002DB
:1011B3001522D2AF22C0E0E493A36C7009D0E0D033
:1011C300E0D0E0020FE8A3A3D0E022E066701008AD
:1011D300A3E066700A08A3E066700408A3E0662231
:1011E300C3E7960809E7960809E7960809E796A270
:1011F300D265D03322E76670100809E766700A08E3
:1012030009E76670040809E76622C3E09608A3E0CD
:101213009608A3E09608A3E096A2D265D0332218DD
:101223001818E4C396F608E496F608E496F608E47C
:1012330096F622C3E096F008A3E096F008A3E096A2
:10124300F008A3E096F022C3E697F60809E697F6BE
:101253000809E697F60809E697F622181818E6082B
:1012630046087009E626087005E633F422082219B9
:101273001919E70947097009E727097005E733F4E6
:10128300220922C3E4939608740193960874029387
:1012930096087403939622E627F60809E637F608BC
:1012A30009E637F60809E637F622700422600D18BE
:1012B300C6C333C608C633C6D5E0F41822E657F6CC
:1012C3000809E657F60809E657F60809E657F6222D
:1012D300E026F608A3E036F608A3E036F608A3E016
:1012E30036F622E026F008A3E036F008A3E036F055
:1012F30008A3E036F022E056F008A3E056F008A376
:10130300E056F008A3E056F022E647F60809E64760
:10131300F60809E647F60809E647F622E056F60816
:10132300A3E056F608A3E056F608A3E056F62260BB
:101333000D08C6A2E713C618C613C6D5E0F322C626
:10134300F4C608C6F4C608C6F4C608C6F4C622C363
:10135300E09608A3E09608A3E09608A3E09622C3CC
:10136300E7960809E7960809E7960809E7962275BC
:10137300D00075813F75210175220500020BA6601F
:101383000C08C6C313C618C613C6D5E0F422E6F08C
:1013930008A3E6F008A3E6F008A3E6F022E709476E
:1013A30009C3134709336002E733F422E0F608A3C5
:1013B300E0F608A3E0F608A3E0F622E6084608C331
:1013C300134608336002E633F422800100E9F8741F
:1013D300FF28F90470F622CAC0E0E6F0A308DAFA9F
:1013E300D0E0FA22E0F8A3E0F9A3E0FAA3E0FB22BD
:1013F300E8F0A3E9F0A3EAF0A3EBF022EAF0A3EB11
:10140300F0A3ECF0A3EDF022E0FAA3E0FBA3E0FCF1
:10141300A3E0FD22E5C754F84401F5C7790122256D
:1014230021F582E43522F58322E62618461846186C
:101433004622C2AF75D69F02000022E7271947193B
:101443004719472212109EA5AE0312109E2DAF031B
:1014530012109EE8AF0312109E4BB00312109E8F22
:10146300B00312109E29B10312109EA7B1031210EC
:101473009EDAB10312109EE8B20312109E08B30362
:1014830012109E5CB30312109E44B40312109E46C6
:10149300B60312109EE8B60312109E38B903121059
:1014A3009EBCB90312109EC1BC0312109EF5BE036D
:1014B30012109E2DBF0312109E8CC00312109E9615
:1014C300C00312109EE5C00312109EB7C203121090
:1014D3009EFFCC0512109E33CD0512109E86CD05BE
:1014E30012109E89CE0512109E70C20512109ECE58
:1014F300C20512109E10C30512109E32C3051210AE
:101503009E0DC40512109E51C40512109E86C4057B
:1015130012109E41700012109EBD700012109EF0BA
:10152300700012109E1E710012109E5C710012104A
:101533009E97730012109EB6730012109EFB7300E9
:1015430012109E91740012109EDD740012109E7191
:10155300750012109E49760012109EA57600121097
:101563009E03770012109E80770012109EB67700BC
:1015730012109E01780012109E27780012109EB759
:10158300780012109E4E790012109E9A7900121064
:101593009ECB790012109E027A0012109E887B0067
:1015A30012109E527C0012109E227D0012109EA8E3
:1015B300E10412109EB2E10412109EC3E104121062
:1015C3009EDBE10412109E47E20412109E6AE204BD
:1015D30012109E7DE20412109E98E20412109EA740
:1015E300E20412109EDCE20412109E04E3041210C3
:1015F3009E2CE30412109E5BE30412109E58E40435
:1016030012109EA5E40412109EBAE40412109E4C1C
:10161300E50412109E9BE50412109EC3E50412100C
:101623009EE8E60412109EB5E80412109E58EB04DF
:1016330012109E72EB0412109EEEAB0512109E1A4E
:10164300AC0512109E3AAC0512109E61AC05121047
:101653009EA8AD0512109EDBAD0512109E99AE0536
:1016630012109E33AF0512109E79DE0512109E7E76
:10167300DE0512109EB1DE0512109EB49C051210F9
:101683009E4A9D0512109E719D0512109E049E0593
:1016930012109E729E0512109E979E0512109EB602
:1016A3009E0512109E529F0512109E0F8A0512105E
:1016B3009E5C8A0512109EA08A0512109EAA8A05B6
:1016C30012109EB48A0512109E108B0512109E8470
:1016D3008B0512109EE88C0512109EFC8D051210CE
:1016E3009E9E8E0512109EB88E0512109EC18E0509
:1016F30012109EBABD0512109E81BE0512109E9354
:10170300BE0512109E0EBF0512109E1AD8051210A8
:101713009E2BD80512109EC9D80512109ED4D80549
:1017230012109EECD80512109EF9FF0112109EE0D4
:101733007F0012109EFBD80512109E0BD9051210C4
:101743009E20D90512109ED4D90512109E18D605D5
:1017530012109E9BD60512109E01D70512109EF5FE
:10176300CA0512109E09CB0512109E70CB051210EC
:101773009EB9CB0512109EE1CB0512109E05CC0538
:1017830012109E28CC0512109E60CC0512109E8864
:10179300CC0512109EC3CC0512109E8BD1051210DE
:1017A3009E14D20512109E23D20512109E53D20509
:1017B30012109E9DD20512109EB4D20512109ECA1D
:1017C300A40512109ED8A40512109E51A50512104F
:1017D3009E29A60512109EECA70512109E31A8059E
:1017E30012109E56A80512109EF87F0012109EEB51
:1017F300C80512109E23C90512109E6ECA05121049
:101803009EF2CA0512109EFC8E0512109E288F05AB
:1018130012109E6C910512109EAC910512109EEC55
:10182300910512109E00920512109E199205121036
:101833009E0B930512109EB0930512109EC4930540
:1018430012109EE3CE0512109E07CF0512109E20A4
:10185300CF0512109E52CF0512109E82CF05121093
:101863009EAFCF0512109EB9CF0512109E1BD00557
:1018730012109E2AD00512109E34D00512109E41DC
:10188300D00512109E15BB0512109E35BB05121014
:101893009E74BB0512109E8FBB0512109EAEBB0536
:1018A30012109E14BC0512109E1DBC0512109E7AC8
:1018B300BC0512109E89BC0512109EADBC0512100A
:1018C3009E6EBD0512109E7BBD0512109E8CBD053C
:1018D30012109ECDDB0512109E15DC0512109E41E1
:1018E300DC0512109E5E850512109EB88605121047
:1018F3009EC6860512109ED9860512109EEE860599
:1019030012109E03870512109E16870512109E8AD9
:10191300870512109EEF870512109E778805121017
:101923009EF3880512109EB7890512109EC789057C
:1019330012109ED6890512109E34DB0512109E5894
:10194300DB0512109E80DB0512109EA8DB0512102A
:101953009E1FC00512109E46C00512109E64C0054E
:1019630012109ED7C00512109E42B80512109E5B3E
:10197300B80512109E67B80512109E7BB8051210A9
:101983009E99B80512109EA3B80512109EADB80516
:1019930012109EC0B80512109E46B90512109EBBC8
:1019A300B90512109EEAB90512109E38BA05121035
:1019B3009E87BA0512109EA2BA0512109EACBA05F4
:1019C30012109EBDBA0512109E00BB0512109EC1D7
:1019D300DC0512109E0CDD0512109E49F504121051
:1019E3009E73F50412109E90F50412109EA3F50445
:1019F30012109EB9F50412109E17F60412109E4F92
:101A0300F60412109E43FA0412109E88FB0412106F
:101A13009EBBFB0412109E1EFC0412109E7EFD044E
:101A230012109EA6FD0412109EBBFD0412109ECB45
:101A3300FD0412109E0FFE0412109E6AFE04121083
:101A43009E7AFE0412109EC6D20512109EE0D205A5
:101A530012109E08D30512109E21D30512109E4525
:101A6300D30512109E63D30512109E7AD30512106C
:101A73009EA8D30512109EC3D30512109EDAD90572
:101A830012109E1EDA0512109E69A80512109E7987
:101A9300A80512109E7EA90512109EB0A90512106A
:101AA3009EE0A90512109E03AA0512109E1AAA050C
:101AB30012109E54AA0512109EB9AA0512109EFB7D
:101AC300AA0512109E3AAB0512109E6BAB051210BD
:101AD3009E96AB0512109EAAFE0412109EBCFE0435
:101AE30012109ED0FF0412109ED3FF0412109E14F6
:101AF300D50512109E4AD50512109E60D505121009
:101B03009EA2D50512109EB2D50512109EF6D505DC
:101B130012109E00D60512109EAFF80212109EF20C
:101B2300F80212109E57F90212109E74F902121055
:101B33009E16FA0212109E1FFA0212109E64FA02F7
:101B430012109E8DFA0212109E9AFA0212109E151E
:101B5300FB0212109EA0FB0212109EE5FB02121064
:101B63009E30FC0212109E95FC0212109EB8FC02DD
:101B730012109E29FD0212109E7EFD0212109EB9C4
:101B8300FD0212109EEEFD0212109E00FE021210C4
:101B93009E12FE0212109E31FE0212109E3AFE02A7
:101BA30012109EEDFE0212109E30FF0212109E6E66
:101BB300FF0212109E70DD0512109E4BD00512100D
:101BC3009EA6C40512109EDCC40512109E24C505F2
:101BD30012109E7DC60512109EDEAA0412109EF7F7
:101BE300AB0412109E31AC0412109EDFAD04121030
:101BF3009E0DAE0412109E73B00412109EB3B00477
:101C030012109E57B20412109EE7B20412109E3BAC
:101C1300B30412109EDDB30412109E1FB4041210FD
:101C23009E61B40412109EBEB50412109E0CB7043C
:101C330012109E43B90412109E71B90412109E989B
:101C4300B90412109EA1B90412109EF8B90412101F
:101C53009E93BA0412109E9BBD0412109E22BE04D2
:101C630012109E8CDA0512109EA4DA0512109EAE95
:101C7300DA0512109E02DB0512109ED8930512108E
:101C83009EEE930512109E8F940512109ECE94051E
:101C930012109EEB940512109E1C950512109E695E
:101CA300950512109E9C950512109ED7950512104E
:101CB3009ED2970512109E3A980512109E1AD705C8
:101CC30012109E79D70512109EB7D70512109EF8F1
:101CD300D70512109E18DD0512109EBDCC021210FE
:101CE3009EC9CC0212109E2BCD0212109E35CD023E
:101CF30012109EC6CD0212109E02CE0212109EF248
:101D0300CE0212109E3FCF0212109ECECF021210AF
:101D13009E04D00212109E7FD00212109E4ED20259
:101D230012109E48D40212109E26D50212109E4411
:101D3300D60212109E8AD80212109ECDD90212101A
:101D43009E7CDA0212109E1CDF0212109E10E0022B
:101D530012109EB4E00212109ED9E00212109E757A
:101D6300E10212109E8AE10212109EAEE1021210ED
:101D73009E1CE20212109E39E20212109E63E202DE
:101D830012109EF9E30212109E1AE40212109EC072
:101D9300E40212109E08E50212109E5DE502121085
:101DA3009EFDE50212109E61E60212109EBFE6023E
:101DB30012109E68E70212109ED6E70212109E09C7
:101DC300E80212109E77E80212109EB2E902121086
:101DD3009E28EB0212109EC5EB0212109E03EE0228
:101DE30012109E6CEE0212109E96EE0212109EB21C
:101DF300F00212109E59F30212109E82F402121086
:101E03009E71BE0412109EA8C00412109E9EC404AC
:101E130012109EE2C50412109E18C60412109EC82A
:101E2300C60412109EFCC70412109EA2C80412100E
:101E33009EC2C80412109EDFC80412109E6BC90410
:101E430012109E15CA0412109E2CCA0412109E3D35
:101E5300CA0412109E58CA0412109E7FCA0412109C
:101E63009E1FDE0512109E00800512109E8D8005B8
:101E730012109E07810512109E28810512109E04E0
:101E8300820512109E71830512109E1A9604121079
:101E93009E49960412109EC1960412109EC4970484
:101EA30012109E20980412109E97990412109EB34C
:101EB300990412109E059A0412109E489A04121057
:101EC3009E5B9A0412109EAD9A0412109E689B04A6
:101ED30012109EE29B0412109E0C9C0412109E444E
:101EE3009C0412109EC09D0412109E999E04121011
:101EF3009EE29F0412109EB5A00412109E3DA10401
:101F030012109E85A10412109E9FA10412109EE63A
:101F1300A10412109E06A20412109E9CA204121089
:101F23009E22A30412109E7CA30412109EC0A3043D
:101F330012109E51A60412109E74A70412109EB094
:101F4300A70412109EA2A80412109ECAA80412107D
:101F53009ECDA80412109ED7A80412109EEAA804CE
:101F630012109E69A90412109E9FA90412109ECB01
:101F7300A90412109EF2A90412109E16AA041210AC
:101F83009E87AA0412109E95AA0412109E1FF204A3
:101F930012109E44DC0512109E50DC0512109E8424
:101FA300DC0512109EF37F0012109E0080041210B5
:101FB3009E58AE0312109E69810412109EB28104D2
:101FC30012109E1A820412109E78820412109E7BB5
:101FD300820412109EC7820412109E3A83041210C8
:101FE3009EC2830412109EC5830412109E4F840464
:101FF30012109E90840412109E73880412109E0C7B
:102003008A0412109E6A8A0412109EE58D0412102F
:102013009E1E8F0412109EEEA70312109E2B910496
:1020230012109E36920412109E87940412109E4D35
:10203300D10412109EF7D10412109E5DD204121027
:102043009E76D20412109EF2D20412109E48D3043C
:1020530012109E98D30412109EFFD30412109E7880
:10206300D50412109EA6D60412109E2BD70412106C
:102073009E31D90412109EDAD90412109E83DA0419
:1020830012109E45DB0412109EEEDC0412109E9685
:10209300DE0412109E47DF0412109E5FE00412104C
:1020A3009E4CC40312109EC0C40312109E08C503A5
:1020B30012109E4CC50312109E95C50312109EDF8D
:1020C300C50312109E17C60312109E95C603121065
:1020D3009EEFC60312109E43C80312109ED4C8037A
:1020E30012109E2CC90312109E46C90312109E6E35
:1020F300C90312109EC6C90312109E35CC031210D9
:102103009E54CC0312109E38CD0312109E68CE034A
:1021130012109EE5CE0312109E34CF0312109E952B
:10212300CF0312109E3BD00312109E09D20312104C
:102133009E09D30312109E87D40312109E68D60300
:1021430012109ECED80312109E7EDA0312109E4EFA
:10215300DB0312109EBCDB0312109ED3DB031210B1
:102163009ECBDC0312109EBBDD0312109E26DE0302
:1021730012109E8BB20512109ED7B30512109E94B7
:10218300B40512109EF8B40512109E65AF05121027
:102193009E80AF0512109EC4AF0512109EEAAF05D4
:1021A30012109E10B00512109E28B00512109E8BBF
:1021B300B00512109EA0B00512109EC3B1051210F7
:1021C3009ECCB10512109ED5B10512109EDEB1054D
:1021D30012109EE8B10512109E47980512109E46F4
:1021E3009C0512109E4B9C0512109E4D9C051210CF
:1021F3009E6D7E0012109EEBDE0512109E6CB505DF
:1022030012109EF6D30512109E9AFF0212109EDC46
:10221300C60512109EBFDE0512109EDFA005121028
:102223009EC8DD0512109ED8DD0512109EC5FB0168
:1022330012109E00800312109E33800312109E9F83
:10224300800312109E3A810312109ED7810312104D
:102253009E1C820312109E3E820312109E5782031D
:1022630012109E7D820312109E9F820312109EDD28
:10227300820312109E21830312109E4383031210C4
:102283009EA5830312109E6C840312109E23850364
:1022930012109E95850312109E60860312109EB342
:1022A300860312109E19870312109E538703121080
:1022B3009EA5870312109E13880312109E7E880327
:1022C30012109E81880312109E02890312109E9998
:1022D300890312109E198A0312109E388A03121062
:1022E3009E9C8B0312109EA98B0312109EB58C0328
:1022F30012109EC28C0312109ECB8C0312109EA34D
:102303008E0312109EBD8F0312109E36900312107F
:102313009EA8900312109ECA900312109E5E910312
:1023230012109E32930312109E09970312109E1DE2
:10233300970312109E2D970312109E3797031210C6
:102343009E40970312109E49970312109E539703C2
:1023530012109E80970312109EA9970312109EB429
:10236300970312109ED8970312109EFC9703121026
:102373009E66980312109EAC980312109EC9980390
:1023830012109E46990312109E7D990312109EBC53
:10239300990312109E099A0312109E8F9A0312102A
:1023A3009E5D9C0312109EE09C0312109EC49D032D
:1023B30012109E2BA00312109E84A00312109ECE17
:1023C300A00312109E29A20312109E5EA2031210F4
:1023D3009EB0A20312109E65A30312109E14A403C1
:1023E30012109E51A40312109EE6A40312109E52D3
:1023F300A50312109E00800212109E32800212105A
:102403009E60800212109E36820212109E16830274
:1024130012109E6E830212109EA9840212109EF562
:10242300840212109E1E880212109E118B0212103B
:102433009E618C0212109EF78C0212109E038D0275
:1024430012109E358D0212109EB88E0212109E69D4
:10245300900212109EFD900212109E4091021210E3
:102463009EBE910212109EDB910212109E0B9202ED
:1024730012109E40920212109E10930212109EB9E7
:10248300930212109E3F960212109E5F9702121043
:102493009E4A980212109ECC980212109E009D0232
:1024A30012109E3D9D0212109E959D0212109EC811
:1024B3009D0212109E329E0212109E689E021210FE
:1024C3009EF39E0212109E4B9F0212109E22A002A8
:1024D30012109EDBA00212109E76A10212109E7EA5
:1024E300A40212109E9AA50212109E3DA902121078
:1024F3009E31AA0212109E34AA0212109E63AA02EF
:1025030012109E69AC0212109E42AD0212109E85FB
:10251300AD0212109EDBAE0212109E1AAF02121011
:102523009EA3AF0212109ED7AF0212109E9CB00260
:1025330012109EB4B20212109E25B30212109E65B1
:10254300B30212109EF3B30212109E15B5021210BD
:102553009ED7B50212109EDEB70212109EF6B70286
:1025630012109E0AB80212109E42B80212109E70F8
:10257300B80212109EEFB90212109E14BB02121081
:102583009E71BB0212109E23BC0212109E4ABC0213
:1025930012109E11BD0212109EA9BD0212109ECFF1
:1025A300BF0212109E04C00212109E67C0021210D6
:1025B3009E96C10212109E3EC20212109E6FC2026C
:1025C30012109E87C20212109E16C30212109ECAD8
:1025D300C50212109EA2C70212109EBEC70212109D
:1025E3009EDAC70212109EA8C80212109E9BCC024C
:1025F30012109E4A330012109E7C330012109E6B01
:10260300370012109EB7370012109EFD37001210CC
:102613009E9F380012109EFB380012109E40390016
:1026230012109E873A0012109E9B3B0012109E8A46
:102633003F0012109E0E400012109E1B410012100C
:102643009E77410012109E67430012109EDC4300E8
:1026530012109EE6430012109EF3430012109E1EBA
:10266300440012109E05450012109EAF4500121043
:102673009E2D460012109E4D460012109E76460077
:1026830012109E98460012109EF8480012109EBE2B
:10269300490012109E034A0012109E804A00121035
:1026A3009E314B0012109E634B0012109EA94B00EB
:1026B30012109EE54B0012109E354C0012109E899D
:1026C3004C0012109EDF4C0012109E2B4D00121076
:1026D3009E984D0012109E134E0012109EDE4F0066
:1026E30012109EDE500012109E03520012109E42E2
:1026F300550012109E55580012109E1259001210C8
:102703009E56590012109E065B0012109E1A5B0023
:1027130012109E245B0012109E2E5B0012109E3A34
:102723005B0012109E565B0012109E015C0012109B
:102733009E405C0012109E4A5C0012109E545C0086
:1027430012109EC45C0012109E0F5D0012109E2496
:102753005E0012109E805E0012109E015F00121038
:102763009EC05F0012109EC9600012109EFD6100A2
:1027730012109EEB620012109E03630012109E5E05
:10278300630012109E7C630012109EC4630012103B
:102793009EEB630012109E86640012109E4C65002F
:1027A30012109EDE650012109E58660012109E7273
:1027B300670012109E1F680012109E4769001210D6
:1027C3009E97690012109EFB690012109E5D6A00BD
:1027D30012109E8B6A0012109EAF6A0012109EE4C4
:1027E3006A0012109E156B0012109E486B001210A7
:1027F3009E686B0012109ED06B0012109EC46C007A
:1028030012109E1F6D0012109E486D0012109ED074
:102813006D0012109E536E0012109E7E6E001210F9
:102823009E636F0012109EB0F00112109EE8F0013B
:1028330012109E09F10112109E4BF10112109EAD70
:10284300F10112109EB7F10112109EC7F10112108F
:102853009E02F20112109EE2F50112109ECFF701C3
:1028630012109EB5F90112109E4CFA0112109EEE41
:10287300FA0112109EE9C40112109E67C5011210DD
:102883009EC3C50112109E0EC60112109E29C601D9
:1028930012109E54C60112109E71C60112109E7D25
:1028A300C60112109E14C80112109E2DC8011210E9
:1028B3009EB2C80112109EC5C80112109EE4C80141
:1028C30012109E88C90112109E09CB0112109EBCE2
:1028D300CC0112109E52CD0112109E55CD01121043
:1028E3009EC5CD0112109EE3CD0112109E7ACE013A
:1028F30012109EC2CE0112109EC5CE0112109E8BE5
:10290300CF0112109EF8CF0112109E1ED00112109B
:102913009EA9D00112109EC7D00112109E0DD101A5
:1029230012109EC1D10112109E0BD20112109E3AB9
:10293300D20112109E97D20112109ECCD201121016
:102943009EF8D20112109E06D30112109E53D3019A
:1029530012109EC3D30112109E0CD40112109E5864
:10296300D40112109E84D40112109E8FD401121030
:102973009EADD40112109E98D50112109EA2D501CE
:1029830012109EDDD50112109EEDD50112109EF698
:10299300D50112109E4AD60112109E5ED601121066
:1029A3009E8DD70112109EA4D70112109EB9D70194
:1029B30012109E47D80112109E8CD80112109E1837
:1029C300D90112109E23D90112109E65DA0112104B
:1029D3009E80DA0112109ECCDA0112109E3BDB01BD
:1029E30012109E74DB0112109E8EDB0112109ED01A
:1029F300DB0112109EA0DE0112109E4DDF011210AA
:102A03009EBADF0112109EFAE10112109E12E2013A
:102A130012109E15E20112109E21E20112109E3542
:102A2300E20112109E3DE20112109E70E2011210AB
:102A33009E72E30112109EF9E30112109E69E401F4
:102A430012109EEBE40112109EACE50112109ECB16
:102A5300E50112109E6CE60112109EC9E6011210E8
:102A63009ECCE60112109EF9E60112109E0EE701BC
:102A730012109E82E70112109ED1E80112109ED718
:102A8300E90112109E62EA0112109E7DEB01121001
:102A93009E45EC0112109E76EC0112109E99EC01FA
:102AA30012109EA2EC0112109ED1EC0112109E6135
:102AB300ED0112109E17EE0112109E8CEE01121002
:102AC3009E33EF0112109EA8EF0112109EDFEF015B
:102AD30012109E1DF00112109E53F00112109E2B36
:102AE300AE0312109E82F10412109E78F1041210AC
:102AF3009E22F10412109E0EF10412109E6DF0043A
:102B030012109E71EF0412109E9BEE0412109EA4ED
:102B1300EC0412109EF7EB0412109E89EB041210C2
:102B23009E0FF50312109E94AD0312109E23800492
:102B330012109E05F50312109E9AF40312109E2F95
:102B4300A70312109E8CA60312109EEEF20312101E
:102B53009EACF20312109ECCF10312109EB6F10349
:102B630012109E77F10312109ED2F00312109ECC26
:102B7300ED0312109EBAEB0312109E87EB031210A3
:102B83009E22EB0312109EB5EA0312109E74EA0311
:102B930012109EADE90312109E48E90312109EF332
:102BA300E80312109E96E80312109E6DE7031210BD
:102BB3009E0AE70312109E54E60312109E4FE6038B
:102BC30012109E43E60312109EF6E20312109E4B70
:102BD300A60312109E2CA60312109EF9A503121031
:102BE3009EE4A50312109EB9A50312109E03F504DB
:102BF30012109ECBF40412109ED0E20312109E75A5
:102C0300E20312109E20E20312109EE1E103121070
:102C13009E74F40412109ECEE10312109EC3E103CE
:102C230012109E9FE10312109EAEDF0312109E2D21
:102C3300DF0312109E35AB0312109EE9DE03121060
:102C43009E8D900412109EBDDE0312109E9EFF0304
:102C530012109E60FF0312109E33FF0312109EFF9B
:102C6300FE0312109E9EFE0312109E86FE03121098
:102C73009E62FE0312109E2BFB0312109EF7F803B5
:102C830012109EDEF60312109E6DF60312109E1CA8
:102C9300F60312109ED6F50312109E3FF503121091
:102CA3009EDDF20412109EC8AA0400000080FBE41B
:102CB300738F0001005C18870001005A1835000467
:102CC30000231825000200271826000200291827D0
:102CD3000002002B182800010035182900010036D6
:102CE30018840004005B15860001007B172A00018D
:102CF3000037182B00010038182C0001003C182D58
:102D030000080067152E0001003D182F0001003E4A
:102D130018300001003F1831000100401832000153
:102D2300006F15330001007015340001004118369F
:102D33000001007115380001004218390001003B01
:102D430018830002005818630001007D1564000118
:102D5300003918650001003A186D0001007E1571F5
:102D63000008005F15660001005718430001004882
:102D730018440002004918450001004B18460002A0
:102D8300004C18470008007515480001004E184B09
:102D93000001004F18040001005B18A10001005F4F
:102DA30018370001005E18880001005D183C00011F
:102DB3000072153D000100431849000200501867D6
:102DC3000001007F154D00020052184E000100540F
:102DD300184F00020055183E00010047185100012A
:102DE30000731552000100451853000100461854A2
:102DF3000001007415000000000000000000002026
:102E030001C3C3000001002001C4C300000200206D
:102E130001C0C3000003002001BFC300000400423F
:102E23000117C200000500420182C10000060042F2
:102E330001F5C0000007003001C2C300000040429A
:102E430001F5C00000FDFF2101BBC30100200020EC
:102E53000583170100210020058417010003F021D9
:102E630027DB170004000021054C1402040000298D
:102E7300054414020401F02127CB17020402F021B8
:102E830027D317030400002905461403041000295F
:102E9300054814030414002805C417030401F02192
:102EA30027CD17030402F02127D5170504000021BD
:102EB300054A14050401F02127CF17050402F02168
:102EC30027D7170001363601010001020100010373
:102ED3000100010401060605020000070100340891
:102EE30001000F090401010D0100FF0E0800001786
:102EF300020000190100FF1A0100011B0100FE1C62
:102F03000100081D0200001F010001200100012132
:102F13000200002301000F24020000260100012704
:102F2300010008280200FF2A0100072B0102402CA0
:102F33000100002D0100012E0100012F0100FF30CF
:102F4300010B1D310800003A0100083B01000F3C52
:102F53000100013D0100FF3E040000420400004661
:102F63000400004A0400004E04000052040000560E
:102F73000400005A0400000103710301030103016B
:102F830003010301032203020301031003000300EF
:102F930003000300030003000300034203000324B0
:102FA300030603000300030403120325032303257D
:102FB3000323030403040300030003000344030087
:102FC300030003230300036503210035038103008A
:102FD3000305030003000300030003250323030386
:102FE3000271023001600211027002010202020248
:102FF300028002100261023A00410063027302720E
:1030030002620243020002130238000002000204BB
:10301300021202000200020002000204020402374C
:103023000037003C0244020002390000020002653E
:1030330002000235028102000205028202830200BD
:1030430002010171010101010111010101310101BC
:103053000101018001100161013B00140063017350
:10306300017201620143010001130106013D0135B3
:103073000004011201000100010001000104010428
:1030830001330133013C01440132013600000100E8
:103093000165010001350081010001050182018301
:1030A3000100010300710030016000110070003164
:1030B300022003500480001000610000001400632C
:1030C300007300720062004300000013000600005A
:1030D30000000004001200000000000000000004D3
:1030E300000400370037003C0244000000000000E9
:1030F30000000065000000350081000000050000AD
:10310300008300000036000100060000000F0000ED
:10311300000000000000000000000003FFFF0000AB
:103123000403FFFF0000FFFF0FF4010005C40403C5
:1031330020000100000B000000000000000003015C
:103143000F0000000000000000000000000000006D
:10315300000000000000000000000000000000006C
:10316300000000BF1DE91DC51DF91CCB1DEF1DCBC4
:103173001DFB1DD11DF91CCB1DEF1DD71DF91C0017
:10318300000000DD1DF91C0000000000000000E34A
:103193001DF91C00000000000000000000000000FA
:1031A300000000000000000000000000000000001C
:1031B300000000000000000000000000000000000C
:1031C300005920010059200200CF1F0280C91F03AC
:1031D30000D51F0400DB1F0480E11F0500E71F0665
:1031E30000F31F3100052033000B2034001120FFB2
:1031F300FF0000030003000400080010001F003E4E
:10320300007B00F600EC01D703AF075D0FB91E7119
:103213003D00000004000021054E14000401F021CC
:1032230027D117000400F02127C917000402F02159
:1032330027D91707ECFDFDFDECDCDCCCBCACAC9C6A
:103243009C8C7C7C6C6C5C5C5C4C4C3C3C2C2C1CEB
:103253001C03EAF5E5D5D5C5B5A5959585857575A1
:103263006565555545453535252515150506040070
:103273000018055214060410002127C5170604116F
:10328300002127C7170A6B26023526054126073B6F
:10329300260C1D260D2926FF000000160F00000B2B
:1032A300150B020002220F3300000E0FD0D1D2D330
:1032B300D4D5D6D7D8D9DADBDCDDDEDF5A6967426D
:1032C3006565416C6C69616E636530393030171820
:1032D3001921301B1D1F3000034D4C4651181A2570
:1032E30005020001191618161618230300303016AC
:1032F300181920231A1C1E30003C40423A3F3F3924
:103303002F47300C0E020B040B0A0708000F0204B0
:10331300020101010109020F00550010055014E8D4
:1033230003000000BE040A030001002400E803FFB9
:103333000409011903041E051E030A0C040F0828BF
:10334300020C050815031074F7120B3AE990165294
:10335300F0901607E4F0121AD790166AE4F0A3F07F
:10336300901653F0A3F01227BB121ADD90158FE4C9
:10337300F0A3F01221BB024CB074F0120B3A74D3D9
:103383001211A212670C54806066901652E0F91273
:103393001B4F8A088B09AF09EA4F604C7C00800100
:1033A3000CEC75F003A4F8A9F0748828F582743244
:1033B30039F583E493F46029E493F88A828B83E0FC
:1033C3006870DDEC75F003A4F8748928F582743213
:1033D30039F583E493C0E0740193F583D082122C12
:1033E300B2AA08EFFB121B3D126E3E648002374BFC
:1033F300852182852283A3E05420601F1226D18A6F
:10340300088B09AF09EA4F600A122629AA08EFFBC5
:10341300121B3D126E3E642002374B8521828522AA
:1034230083E0A2E0504290160CE0640F702E9009E6
:103433003D126E4990093DC3E094E9A3E094034033
:103443000A7A007B8090147F124D9279001225FF37
:10345300E9600990182312140B122617852182851F
:103463002283E06401023730542070030237357A37
:10347300207B00901652E0F9121CA5EA4B4C4D70CC
:103483001A9016661213E7E8494A4B700E75080145
:10349300750900750A00750B00806D750C00750DBC
:1034A30000750E00750F00121CB78A088B098C0A71
:1034B3008D0B9016661213E7E8494A4B603190165C
:1034C300667808121057400E750CFF750DFF750EC8
:1034D300FF750F7F801985080C85090D8C0E8D0FE4
:1034E300901666780C1211727401780C12115985BA
:1034F3000C08850D09850E0A850F0BE5084509455E
:103503000A450B700302368F7C0079047A007B0036
:103513001226A78A0C8B0DAE0CAF0D0235D37402A5
:1035230012142274FFF0740312142274FFF0740453
:1035330012142274FF124E051265C6740712119AF3
:1035430012687CE96401706A1237574480F8A3E07B
:10355300F97428121422E8F0A3E9126B10E0C0E01A
:10356300742A121422D0E0124DF254086016742803
:10357300121422A3E04401123764C0E0742C121425
:1035830022D0E0F012674F6011E8240B123F4AF893
:103593007416121422E8F0A3E4F090C37F120F16FE
:1035A300740612119A740B121192122323740412CB
:1035B30011248E828F83A3A3A3A3A3A3A3A3A37482
:1035C30006123764F912268974051214221268D37D
:1035D300EE4F700302368F7C007904EEFAEFFB1294
:1035E30026A77405121422EAF0A3EB124B1CE0F594
:1035F3000CA3E0F50DE4F50EF50F7808790C121322
:10360300624023EE2404F8E43FF985080C85090D94
:103613008882F583C3E0950CF0A3E0950D126F3318
:10362300E84970A4800C8E828F83A3A3A3A3E4F044
:10363300A3F08E828F83A3A3A3A3A3A3A3A3A3A374
:10364300E064018E828F83A3A3A3A3A3A37020E0CE
:10365300540460030235218E828F83A3A3A3A3A303
:10366300A3A3A3A37406F07AB712388A0235CBA3B7
:10367300A3A3A3E060030235218E828F83A3A3A3B8
:10368300A3A3A3A3A3A37401F00235CB1226777CD3
:103693000079017A007B001226A7EA4B6003124DE2
:1036A3008B7C0079047A007B001226A7EA4B701307
:1036B30080448A828B83A3A3A3A31268EBEE98EFC3
:1036C30099400B8A828B83A3A3A3A31268D37C00A4
:1036D30079041226A78B0BA90BEA4970D5C3E50819
:1036E3009EE5099F500DC3EE9508FEEF9509FFEE89
:1036F3004F700D124D8B90166612375DA3F0802428
:10370300EE2EFEEF338E08F509E4F50AF50B780883
:103713001211097A20123933121124121CB7901690
:10372300661213FF852182852283E06420FAA3E0D9
:103733008016A3E054046013125FA3122C057901D1
:10374300124111126E3E6404FB80047A007B007404
:103753002D02672BEE126739E022E4F0A3F0A3F009
:1037630022124DF7A3A3E022C082C08374EA121190
:10377300A27C167D007900AA21AB22121B257408B6
:103783001214227402F09015FB1261DF1237AB742E
:10379300091214221261F77413121422E4125E76D2
:1037A3001221AF74160250C1E8F0A3E9F090160598
:1037B3001268BB2274F7120B3A74DA1211A2EAFEF2
:1037C300EBFFEA4F602DAC21AD221226EF740612F7
:1037D3001422E0601E7417121422E0FD7401121407
:1037E30022E0FCEEFAEFFB79001225D5E9600479BB
:1037F300A4800279007426024CAD74F7120B3AEAE6
:10380300FEEBFF8A82F583A3A3A3A3A3A3E0544003
:1038130060178A828B831266EC124FD060067AFFA0
:103823007BFF80151266E880039015FB1265C67452
:10383300FE6A700374FF6B60411266E8126712122E
:103843002785E98E828F83600B1262D5126EFEE4A8
:10385300F0A38003126EEDF07C057D268E828F83AC
:10386300124646E9F5087015EE4F60097901EEFA44
:10387300EFFB122683A908024CB07508CDAA0812E3
:10388300388AE960E380EE8E828F831262D9240C3A
:10389300F582E438F583E0F91226112274F6120B4F
:1038A3003AE9FEEAFF7A0F7B00121B37EA4B601AF4
:1038B3008A828B83740CF0EEA3A3F0EF8A828B834E
:1038C300124A6B125ED47900802BEEF91226AD8B6F
:1038D30009A909EA49601C8A828B83A3A3A3A3A332
:1038E300A3A3A3A37406124A74E0F91223C5EEF945
:1038F3001226897910025CBF74F4120B3A8A088B82
:10390300098C0A8D0B90160CE0640F701EEA4B4C69
:103913004D6018901607E064086005E06404700BBE
:103923007808121109123931121124023B967A01D7
:103933007B00901652E0F9121C9374042274F41263
:103943000B3A74FC1211A2EAFEEBFF8A82F583A301
:10395300A3E0F91226AD8A088B09EA4B7003023AF9
:10396300798E828F83A3A882A983E0C0E0EA125EE6
:10397300CAD0E01248DA64F160288E828F83A3E014
:1039830064CD601E8E828F83A3E0641A60148E82DE
:103993008F83A3E064E9600A8E828F83A3E064E1EE
:1039A30070337900122683E9602BE5082404F50AB5
:1039B300E43509F50B850882850983A3A3A3A3A393
:1039C300A31249B01248B8121AE9850A82850B83FB
:1039D30012671280708E828F83A3E0C0E07402129C
:1039E3001422D0E01250CF1251F2124360C0E0749F
:1039F30003121422D0E0F0E508126BBB124009E079
:103A0300AA21AB22700512231D800312276D7402B5
:103A1300121422E064E9702D85088285098312411E
:103A23006F750A01780A121115750AE9780A1211DD
:103A33001512488C12432DFCA3E0FD8A828B83125E
:103A43004357121124850882850983A3A3A3A3A343
:103A5300A3A3A3A3E064027012850882850983A34C
:103A6300A3A3A3A3A3A3A3A37406F08E828F83A30C
:103A7300A3E0F9122689122677901829123F7B7446
:103A830004023B9374F4120B3AEAFEEBFF75080051
:103A93008A82F583A3A3A3A3A3E060387508081261
:103AA30065B979FF122455EA4B601075082C8E8294
:103AB3008F83A3A3A3A3A3E0D2E0F08E828F83A37B
:103AC300A3A3A3A3E0540364016003023B8243085E
:103AD30011023B82EA24181254B86036EA241A12FF
:103AE30054B86003F4701312689B7003A3E0696019
:103AF30003023B82750822023B82EA241B123B86A7
:103B0300241A1254B8FAEE24191254B8F91223B332
:103B1300806D8A828B83A3A3A3A3A3A3A3A3A312CE
:103B23003F6670037508018E828F8312689F70034E
:103B3300A3E0697006E508D2E1F508E50860158E93
:103B4300828F83A3A3E07006E508D2E58004E5082D
:103B5300D2E6F508124FC364017006E508D2E0F51A
:103B6300088E828F83A3A3E06015EE241D1257D71E
:103B7300F9122773E964016006E508C2E0F508A9B4
:103B8300088010F582E43FF583126F56EA22740928
:103B93001211247F04020E4B74F0120B3A74D712E5
:103BA30011A2EAFEEBFF8A82F583A3A3A3A3E0603D
:103BB3000E9018271267566006901827123F7B74E1
:103BC3000312119A8E828F83A3A3A31260A212659C
:103BD300C41226EFE97003023D2C78017405121418
:103BE30022E0C39402400278007407121422E0C357
:103BF300940240027800740C121422E064F87003FB
:103C0300A3E0F47003023D2C740C121422E064F957
:103C13007003A3E0F47003023D2C740C121422E031
:103C230064FA7003A3E0F47003023D2C740C1214C5
:103C330022E064FB7003A3E0F47003023D2C7406DE
:103C4300121422E0F99015F5E0696003023D2CE8B7
:103C5300A2E04003023D2C7427121422E060030209
:103C63003D2CEE24131268B174221214221260AC9C
:103C7300241C1268B174101214221261F774091211
:103C83001422E0601D741A121422E0FD740412144D
:103C930022E0FC8E828F831265C479011225D5E957
:103CA300703B7403121192122623E9F50C74091266
:103CB3001422E0702C9015EFE060267422596422E0
:103CC300601F744259644270147420121422123F0C
:103CD30060600E7420121422123F5960047ACF8060
:103CE3004AE9A2E6504D74201214221257DD24FD36
:103CF300600F14600C24FD600824FD600424FE7032
:103D0300287420121422123F52700E7420121422AF
:103D1300125E03A3E0640D601A740312119212275A
:103D23009DE96401700D023F427AD37B00121FA507
:103D3300023F42EE242DF582E43FF5831241667083
:103D430003A3E069701D750800780812111578083F
:103D5300121115EE242F1254B8F9123F6C12435767
:103D63001211247409121422E07003023E0A123F56
:103D73006C1265C61227EB8A0E8B0FEA4B70030297
:103D83003E9B7404121422E0F88E828F83A3A3E077
:103D930028F8A3E03400F9E8240D123F4AF88A8298
:103DA3008B83A3A3A3E068600EE88A828B83A3A31B
:103DB300A3124A6412375E7904E91214221254D70B
:103DC300A3E02AF8A3E034008882F583A3AA82AB98
:103DD30083121B2B8A088B098C0A8D0B850E828517
:103DE3000F83A3A3A3A378081210574003023F42F3
:103DF30090C2EF78081212D3850E82850F83A3A396
:103E0300126F5CA31251FB901607E064046008E094
:103E130064096003023F42E50CA2E54003023ED57C
:103E2300EE242F1254C0F0EE24301254B8C0E074C4
:103E330001121422D0E0F0EE24311254B8C0E07421
:103E430002121422D0E0F07414121422E064017000
:103E530026740E1214221248B324131254B8687035
:103E630003A3E0697011740C121422123F667007E9
:103E73007414121422E4F0EE2425F582E43FF58352
:103E8300120F16740412119A74071211921223233B
:103E93007404121124023F4290164CE06401600343
:103EA300023E0A7420121422123F607009E50CA22C
:103EB300E65003023E0A7410121422E0F47003A3C6
:103EC300E0F4607BEEFCEFFD740312119212262FD7
:103ED300806DA2E6506974201214221262E57016F6
:103EE300741A121422E06402705574031211927949
:103EF3000012276780497420121422123F5970144C
:103F0300741A121422E064047035740312119212AD
:103F1300275B802B7420121422123F52700C7900FD
:103F230074031211921227A98015742012142212FD
:103F33005E03E0640C700874031211921227B574C7
:103F43002902672BE82406F582E439F583E022127F
:103F530066F2E06403221266F2E06407221257E17C
:103F6300640622124FD4640222EE242BF582E43F2E
:103F7300126F54EE124FA922E0F508A3E0AA08FB42
:103F8300E4FCFD1226172274F4120B3AEAFEEBFF4F
:103F93008C088D0990156FE0600F12689B7003A366
:103FA300E06970051223A1805379001265B91223C9
:103FB300D18A828B83E5824583602CA3A3A3A3A329
:103FC300A3E054186021E508241C124006120F1ABE
:103FD300124002120F1AEE241812433E125A9E1276
:103FE3006873121124801579008E828F83A3A3A393
:103FF3001262CB125A9E1265C61223A7023B96E5A4
:10400300082413F582E43509F5832274F7120B3A79
:1040130074F71211A2EAFEEBFF901607E064036047
:104023000DE064016008E06409600302410C8A82C8
:104033008B83A3E060030240DA7C007D007A027B7D
:1040430000121AE31269188A821268B59015F812E1
:1040530061F7795312219D901607E0640960099076
:1040630016051265C61227E5852182852283740110
:10407300125E1B9016077404F07401121192794AB0
:10408300122197740112119A7AFD7B15121CCF909D
:104093001482E0640B70057406F080057900124108
:1040A300119015F81262D17A037B00121AE390156E
:1040B300FB1262D17A047B00121AE39015F2E0A29C
:1040C300E35004D2F08002C2F0125E08901823126B
:1040D300140B122617802FFC7D007A037B10121A13
:1040E300E3901482E0640B7003740AF0901573E498
:1040F300F0FA7B40125BF88E828F83A3E0F91241C2
:1041030011901607E4F01226597409024CAD90166B
:10411300051265CA12233522C082C08390158F12FF
:1041230067567017901607E024FB6005146007803C
:104133000A901595801F901597801AE84960071219
:104143003F476401700C8A828B83A3E0F912232911
:10415300800E9016811267566006125E04122CB20E
:1041630002594F1268BB901605E068221268BBE83B
:10417300FAE9FB2274F5120B3A74D81211A28A08D9
:104183008B098A828B83A3A3A3A3A3A3A3A3E0C3C3
:10419300940F50030243288A828B83A3A3A312683C
:1041A300D3741512119A8A828B83A3A3A3A3A3A307
:1041B300A3A312432DFAA3E0FB1226657415121470
:1041C30022E0702E850882850983A3A3A3A3A3A35A
:1041D300A3A3E0C3940B401A8E828F83A3A3A3A34C
:1041E300A3A3A3A3E064027009EE240B1254B8F452
:1041F30060030243287417121422E060076402600C
:1042030003024328901607E06402601CE064066022
:104213001790158F1267567003024328123F4764A5
:10422300016003024328802590158F126756701D85
:1042330075080078081211157808121115EE24106C
:1042430012433E8E828F831243571211248E828F24
:1042530083126F2B1248E31268B7740212142212EE
:1042630060AC123758C0E07404121422D0E0124339
:1042730060F508A3E0F509740F780812138274053A
:10428300121422E508F07419121422E0C0E0740637
:10429300121422D0E0F0741B121422E0C0E0740761
:1042A300121422D0E0F07416121422E0C0E0740954
:1042B300121422D0E0F07417121422E0C0E0740844
:1042C300121422D0E0F0EE24101254B8C0E0740AA5
:1042D300121422D0E0F0741A121422E0C0E0740B1E
:1042E300121422D0E0F07427121422E0C0E0740C00
:1042F300121422D0E0F0741C121422A982AA83891A
:10430300088A09750A00780812110D7C087D00746B
:1043130010121422AA82AB831254AF121124AA21C1
:10432300AB2212232F7428024E0BE0F98A828B836F
:10433300A3A3A3A3A3A3A3A3A3E022F582E43FF52E
:1043430083E0F98E828F83A3A3A3A3A3A3A3A3A331
:10435300126F56221265CA122725740222F0EE123A
:104363005AA3E02274F2120B3A74F81211A28A0AC9
:104373008B0B8C0C8D0D890890C25BAC21AD227424
:1043830008121017C200AC0AAD0BAA21AB221265AA
:10439300477002D2009016538013AC0AAD0BEE2483
:1043A3000BFAE43FFB126547701B124F9A124C2D18
:1043B300601EA20040E48E828F83E0650C7004A32C
:1043C300E0650D70E58E828F83A3A3E0650870DA44
:1043D300EEFAEFFB74080248F0C082C083901653D4
:1043E30002594CC082C083901653E4F0A3024642A4
:1043F30074F7120B3A901653126E44800FEA24148A
:10440300F582E41268D0121BD3EEFAEFFBEA4B708D
:10441300EC901653E4F0A3F0024CB074F2120B3A92
:104423008A0C8B0DEDFF890B8A828B83E08C828D46
:1044330083F0A3A882A9838A828B831244E7124A5A
:104443005EE0C454F0FA88828983E04AF0EC2402E7
:10445300F8E43FF9850C828B83A3A31244E712444B
:10446300FAE0333354FC1244EEE033333354F8129E
:1044730044EEA3E0A2E0E4331313FA88828983E0D5
:104483004AF0EC2403FE50010FE50C2407F508E481
:10449300350DF509750A00780812110D7C087D00A9
:1044A300EEFAEF1254AE121124EE2408FE50010F5F
:1044B300E50C240FF508E4350DF509780812110D04
:1044C3007C037D00EEFAEF1254AE121124E50BC308
:1044D300940F400DE50C2412F582E4350D125AB207
:1044E300F00248F3A3E08882898322FA88828983D1
:1044F300E04A1244FAA322F0850C828B83A3A3A380
:10450300A32274F2120B3AEBFF8C0C8D0D8A82F509
:1045130083E08C828D83126F15A3A882A983E01296
:1045230058F71248D9C41258F1F0EA126F1F125803
:10453300FE1248D7A2E2E4338C828D831248D6134D
:104543001313541F1258F7A31248D6A2E7E4338C6F
:10455300828D83A3A3A3A3A3A3F0EA2403FE5001A4
:104563000FF5088F09750A00780812110D7C087D74
:1045730000E50C24071254AA121124EE2408FE505D
:10458300010FF5088F09780812110D7C037D00E5F2
:104593000C240F1254AA1211248E828F83A3A3A377
:1045A300E0C0E0126F3BD0E0F00248F374F6120B68
:1045B3003AEAFEEBFF8A82F583A3858208858309A5
:1045C300E0F912234D850882850983E064EB601EC0
:1045D3008E828F83A3E064E160148E828F83A3E0D5
:1045E30064F1600A8E828F83A3E0641A70078E825F
:1045F3008F83A3E4F090182312140B122617750867
:104603000178081211158E828F83A3E0F5087808CC
:1046130012111579009016051262D19015FB124301
:1046230057121124122677025CBFC082C083E9901F
:1046330016657003E4800274018004EAF0A3EBF0D2
:1046430002594F1265CA1221B52274F6120B3A9021
:104653001665E0701B7C0079017A007B001226A7A7
:10466300EA4B600C8A828B83126756600312260B17
:10467300025CBFC082C083124B0D401079FF12262B
:10468300A1E9F8903344E493C3985004790180027C
:10469300790002594F74F2120B3A8A0A8B0B89097B
:1046A300C2008A828B83A3A3A3A3A3A3A3A3E0F93A
:1046B3001226AD8A0C8B0DAE0CAF0D750801EA4FB7
:1046C3006003024779850A82850B831262CB850AD0
:1046D30082850B83A3A3A3A3A3A3A31248B8122683
:1046E300958A0C8B0DAE0CAF0DEA4F700302488513
:1046F3008A828B83A3A3A3A3E4F0A3F0E50A240C8B
:10470300FAE4350BFB8A82F583E0C0E012488CD0D3
:10471300E0F0E50A240D1248AC240D1261F11227D2
:104723008B124FB2126712E50A24111248AC2411FE
:104733001261F1E50A24131268E2C0E0124FA4D01B
:10474300E0F0D200EE2406F8E43FF912489F124845
:10475300DA540460030247EB901835E0F50A750B51
:10476300007407780A1212AD8E828F83A3A3A3A3CA
:10477300A3A3124896F08E828F83A3A3A3A3A3A31C
:10478300E0F50AA3E0F50B7407780A121382E50A31
:104793005407FCE50960618E828F83A3A3A3A3A3BF
:1047A300A3A3A3A37402124E05124BA2600B901590
:1047B300F3125538A3A31261F7EC700302485CEEC1
:1047C3002406F8E43FF9E8FAE912489FF0EC24FFE5
:1047D300F50AE434FFF50B7407780A1212AD8A82E6
:1047E3008983124896F080718E828F83A3A3A3A33B
:1047F300A3A3E04480024778EC7005750800805954
:104803008E828F83A3A3A3A3A3A3E05420600C12DF
:104813001B31EA547F7900245F80198E828F83A332
:10482300A3A3A3A3A3E05410601A121B31EA540FED
:104833007900240A5001098E828F83A3A3A3A3F0D6
:10484300A3E9800D8E828F83A3A3A3A37401F0A396
:10485300E41248E37404124B23A20050288E828F83
:1048630083A3A3A3A31265D0F9EEFAEFFB12269B51
:10487300E9601212674F60031248C5EEFAEFFB12AC
:104883001BD3750800A9088067EE240CF582E43F6A
:10489300F58322E0450AF0A3E0450B228882F583E5
:1048A300E0547FF0A3E054FC22F582E4350BF5835A
:1048B3001268BBEE22A3E0F9850A82850B83126599
:1048C300CA221248CC124D2222EE240FF582E43F75
:1048D300F58322A3A3A3A31248DE221268FEE022DB
:1048E3001248E722124DFBA3A3A32274031211243F
:1048F3007F06020E4B74F4120B3A74F71211A27E68
:10490300001226ADEA4B70030249AB8A828B83A364
:10491300A3A3A3A3A3A3A3A3E0640660030249ABD9
:104923008A828B83A3A3A3A3A3A3A3E0FF8A828B7F
:1049330083126EDDE0C0E07408121422D0E0124C42
:10494300D31261E41261F71226BFEF540860578552
:1049530021828522831262D17A007B0012268FEA9C
:104963004B7043126F467C007D007A007B008022EF
:104973008E828F831257DDF47003A3E0F4602790D7
:1049830016051249B0124CB5601C7C007D00EEFA8E
:10499300EFFB12268F8A0A8B0BAE0AAF0BEE4F701A
:1049A300CF79001221CD7E01EEF9023B911249B479
:1049B30022E0FCA3E0FD8E828F8322C082C0838A23
:1049C300828B83E5824583700990166A80068A820A
:1049D3008B83A3A3124BD660208A828B83A3A3A3CA
:1049E300A3A3A3A3E0540860E5EC4D6010124BDCD5
:1049F3007003A3E06D70D780047A007B0002594FE7
:104A030074F2120B3A8A088B09890AECFEEDFF7ADD
:104A1300147B00121BCDEA4B60378A828B83A3A3DE
:104A2300A3A3A3A3A3A3A3E4124A74E50A124CBF4E
:104A3300EEF0A3EF124A64124CDA124A6B8A828BAD
:104A430083126F5E124A5712664DA3124A5EF0A399
:104A5300F00248F3EA240FF582E422126F19A3A3AC
:104A630022124CC5E4F0A322A3F0126ED612664DB7
:104A730022124A7822124CC9A3A3A3A32274F512CB
:104A83000B3AEAFEEBFF890A8C088D09EA4F607541
:104A9300740169701279011226A1E9F8903346E492
:104AA30093C3985015800A7404697009124B0D5012
:104AB3000979118052740269704B8E828F83A3A38C
:104AC300A3A3A3A3A3A3A3E50A124B1C1251F2129F
:104AD30067D7A3E4F0A3F090166A126756601880B4
:104AE300031268B788828983A3A3124BD68882896D
:104AF30083A3A370EC800390166AEEF0A3EF124B2E
:104B0300237900800279C1024E0E79041226A1E9AD
:104B1300F8903345E493C398221267DBA3A3A3223F
:104B2300F07A207B00901652E0F9121B7922C082A2
:104B3300C083E9F8790090166A801D8A828B83A36B
:104B4300A3A3A3A3A3A3A3A3E068600574FF687052
:104B530001098A828B83A3A3124BD670DE02594FBD
:104B630074F7120B3AEA4B700590166A80068A8234
:104B73008B83A3A3124BD6601F8A828B83A3A3A329
:104B8300A3A3A3A3A3A3E06970E4EC600F8A828BC1
:104B930083124BA270D880047A007B00024CB012BF
:104BA3006EF6E0540422C082C08390166A80068A9F
:104BB300828B83A3A3124BD660128A828B83A3A317
:104BC300A3A3A3A3A3A3E06970E580047A007B00F9
:104BD30002594F1265CAEA4B228A828B831257E12C
:104BE3006C2274F2120B3A8A0A8B0B8C0C8D0D75A6
:104BF3000800750900EA4B602A90166A80068E82C7
:104C03008F83A3A3124C2D601AAC0CAD0DEEFAEFFB
:104C1300FB850A82850B83122CB2E9640170DF8E57
:104C2300088F09AA08AB090248F3E0FEA3E0FFEEF0
:104C33004F2274F7120B3A90166A1268B77C007D04
:104C430000800DE8FCE9FD88828983A3A31268B77D
:104C5300E8496030EA687002EB6970E790166A12FF
:104C630065C6E86A7002E96B88828983A3A370082A
:104C73001268B790166A80091268B78C828D83A375
:104C8300A31261F7802774F7120B3AEAFEEBFFEAEF
:104C93004F60151226B9124D0E12674F600312486A
:104CA300C5EEFAEFFB121BD380031211247F01021E
:104CB3000E4B1265CA1221C1E9641A22124CC5A314
:104CC300A322124CC922F08A828B83A3A3A3A3221B
:104CD300126F191257E122124A78A32274F6120BAB
:104CE3003A90166A1268D380141268F0124D0E12AD
:104CF30048C5EEFAEFFB121BD3AE08AF09EE4F70B7
:104D0300E890166AE4F0A3F0025CBF8E828F8312F0
:104D13006ECAF583124D228E828F83124D2222E0BA
:104D2300FAA3E0FB121BD322C082C083EAFCEBFD93
:104D3300EA4D6017EA24FBF582EB34FF12675470E7
:104D430007124D80E0F46007121B3D7905802B901C
:104D53001652E0C0E0124D80D0E0F090333DE49372
:104D6300F97A6C7B16121B73E96401700B7A007B72
:104D730020124D8F79008002790402594FEA24FFF3
:104D8300F582EB34FFF583227A207B00901652E004
:104D9300F9121B792274F4120B3AA2AFE433F5082B
:104DA300C2AF90166C124C2D6038EE24FBF582EFE7
:104DB30034FF1267547A007B209016526005124D1F
:104DC300928005E0F9121B7FE4F50AF50B780A12CD
:104DD3001111EEFCEFFD7A6C7B16121B6D7402123F
:104DE3001124E508A2E092AFEEFAEFFB023B961224
:104DF3004DF7E022124DFB22124E05A3A3A3A3A35A
:104E0300A322F08E828F83221211247F03020E4B82
:104E130074F2120B3A74FA1211A2EAFEEBFF750850
:104E2300FE7509FF12267DE960057911024F95127F
:104E330054B5603C90184FE0C43354E0F8E033338A
:104E430054FC48C0E0EE125EC43FF583D0E0126923
:104E530012FAA3E0FB79FF122455EA4B601275089E
:104E6300FFEE240F1254B84404F01254B5D2E0F00C
:104E73008E828F83124FCE6006EE241212692AEEC1
:104E830024131254B8700D90333BE493C0E0124FD7
:104E9300A4D0E0F08E828F83E0A2E7500454038015
:104EA30019EE24141254B870129015E4E0C0E01205
:104EB3004F9AD0E0F09015E4E004F0EE2411125480
:104EC300B864017016901839E0600D9015EFE0702A
:104ED3000A8E828F83E070031269278E828F83E0AC
:104EE30064017013EE240B1257D764027009EE2489
:104EF3000F1254B84440F0AC21AD22EEFAEFFB128E
:104F030026E98A0A8B0B74FE6508700374FFF4703C
:104F1300031268F0EA4B60768E828F83E0C0E07400
:104F230001121422D0E0F07404121422EEF0A3EF65
:104F3300F0EE241E1268B174021214221261F77487
:104F43000112118A880C890D780C121111EE24209C
:104F5300124FB7121115124FB2120F1AEE240E127E
:104F63004FB71211159015F8120F1A740812142264
:104F7300E0F9AC08AD091226E37408121124E9FE26
:104F830074106E700BAA0AAB0B121BD380027E1037
:104F9300EEF974060248F0EE2414F582E43FF5833B
:104FA30022EE124FA9222413F582E43FF58322EE69
:104FB3001248CD22F582E43FF583E0F50C780C220C
:104FC3008E828F83A3A3A3A3A3A3A3A3A3124FD4CC
:104FD30022E0FAA3E0FB122785E922C082C0837492
:104FE300D71211A290BBEC740312119A74261210FB
:104FF300178A828B83A3A3A3A31268B7740E121418
:105003002212675C1268B7740C1214221250D72450
:105013000D1250C7C0E0741A121422D0E0F01266C9
:10502300531268B574201214221250D7241512504B
:10503300C7C0E07408121422D0E0F0EA241CF58201
:10504300E43B1268B574121214221250D7241112C1
:1050530050C7C0E07409121422D0E0F0EA241212FF
:1050630050C7C0E07407121422D0E0F0EA241EF502
:1050730082E43B1268B574241214221250D7242000
:105083001250C7C0E07426121422D0E01250CF741D
:10509300FFF0740112142274FFF0740212142274CC
:1050A300FFF090C37F120F16740412119A74071243
:1050B30011921223237404121124790074291211FA
:1050C3002402594FF582E43BF583E022F0852182E7
:1050D30085228322E8F0A3E9F0EA2274F4120B3A62
:1050E30074EC1211A28A0A8B0B8C088D09E9FF7EDE
:1050F300107A217B00121BCD852182852283EAF061
:10510300A3EB126766E84970030251EB7C217D0033
:105113007900852182852283E0FA121B25901605EA
:105123001265C68521828522831262D52409F58200
:10513300E438F58312671274201214221268B774CC
:1051430011121422E812584612671838F5837402B4
:10515300125849126EE474021258331251F2125863
:1051630049126EC1EFF074221214221257F4F9A3FC
:10517300E0C9126BBB39F583E8125509A3E0C924D2
:105183001FF582E4391251F974231214221265C6F1
:1051930074061214221267127408121422E8F074AF
:1051A300261214221266ECC082C083740C121422DD
:1051B300AC82AD83D083D08274051210177425128C
:1051C3001422E0C0E07413121422D0E0F07900AA94
:1051D30021AB22122683E9640170047E00800985D5
:1051E30021828522831248C8EEF97414023B93E5A9
:1051F30008F0A3E50922F583E50AF0A3E50BF02205
:1052030074F0120B3A74FF1211A2EAFEEBFF8C0842
:105213008D098A82F583A37408F0EA24161254B820
:1052230060088A828B83A37410F0EA24171254B89F
:1052330060098A828B83A3E02408F0EA1254B660E3
:10524300088A828B83A3E004F08A828B83A3A3A3BF
:10525300A3A3A3E060198A828B83A3A3A3A3A3A31D
:10526300A3E0C3332402F88A828B83A3E028F0EA05
:1052730024111254C06004740E8001E4F0901847A6
:10528300E0640170168A828B83E06401600D9015DF
:1052930073E060071254A0740180041254A0E41256
:1052A30055098A828B83A3E0F8EA12375828298CA0
:1052B300828D83F0EA24111254B86005125AE12951
:1052C300F0850882850983E0C394754009750C0055
:1052D300750D00025497E0FA7B00121BCD8A0C8BEC
:1052E3000DEA4B70030254978E828F83E0FA901578
:1052F300F5125502740278081212ADEA4508FAABAA
:1053030009EE24121254FC740678081212ADA80890
:10531300EA48FCEBFD1254B5600478018002780082
:10532300EE2416FAE43FFBE4C8F9ED49FDEE24113F
:105333001254B8F5088809740978081212ADED45BE
:1053430009FD8A828B83125502740B78081212AD01
:10535300ED4509FDEE24171254FC740C7808121263
:10536300ADED4509FD8E828F83A3A3A3A3A3A3124F
:105373005502740A78081212ADED4509FDEE242397
:105383001254FC740D78081212ADED4509F9EC8541
:105393000C82850D83F0E9A3F0EE24021254DF1290
:1053A300551EF0EE24041254DFA3A312551EA3A32B
:1053B300F0EE24131254EFF0EE24141254EFA3F082
:1053C300750B088A828B83E060151267C81262D15D
:1053D300E50C2408FAE4350DFB121CCF750B10EE17
:1053E30024171254B860191263541262D1A80BE542
:1053F3000C28FAE4350DFB121CCF7408250BF50BB2
:105403008E828F83A3A3A3A3A3A3E0604EEE2407FE
:10541300F50EE43FF50F850E82F583E0C0E01254EC
:10542300CED0E012550EE0C0E0081254D0D0E01206
:10543300550EA312674212110D850E82850F83E06C
:105443001257A8A80BE50C281254AA121124850E92
:1054530082850F83E0C333250BF50B1254B5600827
:10546300C0E01254CED0E0F0125A9E1267421211DD
:105473000D123757FC7D0074031214221254D7E027
:10548300F8E50C28F8E4350DF9E82AFAE439125462
:10549300AE121124AA0CAB0D740102672BEA24236C
:1054A300F582E43FF58322FAE4350DFB121B1974F0
:1054B3000322EE2415F582E43FF583E022F582E42E
:1054C3003FF583E085218285228322A80BE50C2802
:1054D3001257BB22E0FA8E828F83A322F8E43FF9AE
:1054E3008882F583E0850C82850D8322F582E43F73
:1054F300F583125528A3A3A322F582E43FF583E0A5
:10550300F50875090022126F07F922F0050B8E8248
:105513008F83A3A3A3A3A3A3A3A322A3A31268FE7E
:10552300A312552822E0850C82850D83A3A3A32211
:105533007403023B931268BB8E828F83A3A32274EE
:10554300F0120B3A74FD1211A212670C74021214BA
:1055530022E9F08C0C8D0D750B017C267D00790002
:10556300AA0CAB0D121B257402121422E0C394087B
:1055730050030257311254E7F0AC0CAD0D85218274
:105583008522831257DDFA852182852283125E03E9
:10559300125ADAE96003750B008521828522831292
:1055A30066EC1257FEE0F9EA850C82850D83A3A30E
:1055B300A3A3A3A3A3A3A3F0A3E9125833A3A31202
:1055C30057FEA3A3E0F9E50C12676BEA12584612E3
:1055D30062C1C0E0E50C2411126F3FD0E0125849BC
:1055E3002407F582E438F583E0C0E0126F3BD0E096
:1055F3001266FF740812582AA3E06026852182856B
:105603002283E02408F8A3E03400F9E50C2413F521
:1056130082E4350D1261F5850C82850D83A3E024A8
:1056230008F0850C82850D83A3A3A3A3A3A3A3A33F
:10563300E0602A850C82850D83A385820E85830F06
:105643001257EBF8A3E03400F9E50C125EC4350DF4
:105653001261F5850E82850F83E02408F01257AF9F
:10566300E4F01257C3E4F0A31266FFA3A3A3A3E0DD
:10567300601112580F850C82850D83A3A3A3A3A3E6
:1056830012583BE50C1257D0E0700302571D125815
:105693000FFA1257AFEA12583BF88521828522830D
:1056A300E028FBA3E034008B82F583E0F8E50C24CB
:1056B3001A126F3FE812583BE8C39AE50C50561292
:1056C30057CBF890333EE493C39850047E0C800686
:1056D300E50C1257CBFE850C82850D831257EAF534
:1056E30008A3E03400F509750A00780812110DEEDD
:1056F3001257A87AB37B0A1254AF1211241257C35C
:1057030074B3F0A3740AF0EEC333F8850E82850FE9
:1057130083E02880041257D0E4F0850C82850D8342
:10572300A3E0F8850C82850D83E0C39850047900CB
:1057330080701257EAFAA3E03400FBE50C126921EA
:10574300126F42126712850C82850D83E0C398C0E5
:10575300E0E50C2417126F3FD0E012582AE06040B6
:10576300E50C2417FEE4350DFF8E82F583E024F269
:10577300F0E50C241DF8E4350DF98882F583E02467
:105783000EFAA3E03400FB88828983126712901516
:10579300F0E0F91225DBE9F88E828F83E0C398F0FD
:1057A300A90B02672925E0FCE433FD22E50C12571F
:1057B300B52224191257BB22F582E4350DF5832255
:1057C300E50C241B1257BB221257B5E0221266F9CF
:1057D3001257BE22F582E43FF5831257E122126885
:1057E300C0F5838882E022A31257EF221257F428D0
:1057F30022E0F8852182852283E022A3A3E0FA85B3
:1058030021828522831266F2A3A3A322850C8285BB
:105813000D83A385820E85830F1257EFFAA3E0341D
:10582300008A82F583E022126703A3A3A3A3A32222
:1058330012584EF583888222F0850E82850F83E00D
:1058430004F022F0A3E912584EC822126F0BF8A3FA
:10585300E02274F4120B3A8A088B09EA1258FEA369
:10586300A3F0EA1313543F1258F1A3F0EAC413133D
:105873001258FE1259087409780A1213821258E852
:10588300A3A3A3A3A3A3F0EB1258EA125907740A24
:10589300780A121382E50A5401C0E0EC1266F93D5E
:1058A300F583D0E012590C740B780A121382125844
:1058B300E8125905740C780A1213821258E8A312DD
:1058C3005905740D780A121382E50A5401C0E0ECFD
:1058D3002424F582E43DF583D0E0F0740E780812B9
:1058E3001382023B82E50A54018C828D8322125873
:1058F300F7A3A322540F8C828D832254038C828DB1
:105903008322A3A3A3A3A3A3A3F08A0A8B0B22C07E
:1059130082C08379008A828B83A3A3A3A3A3A3E07A
:105923009015EF600EE0701F8A828B83A3A3E07053
:10593300168012E060111265B99015F8E06A7003E1
:10594300A3E06B6002790180031265C6D083D08225
:1059530002109B74F2120B3A8A0A8B0B890CECFE31
:10596300EDFF8A828B83E0FA125ADA850A82850B6D
:1059730083A3A3125ACEE0F9EA8E828F83A3A3A353
:10598300A3A3A3A3A3A3125AF3125ACEA3A3E0F98A
:10599300125A9EEA125AF3A3A3E0C0E0EE2411F5D3
:1059A30082E43FF583D0E0125AFAA3A3A3E0C0E058
:1059B300EE2412F582E43FF583D0E01267D7740832
:1059C300124B1CA3A3A3E06017E50A2408F8E435EF
:1059D3000BF9124FA4E8F0A3E91267D7E02408F00B
:1059E3008E828F83A3A3A3A3A3A3A3A3E060188E94
:1059F300828F83A3125ABDEE24151261F1850882AA
:105A0300850983E02408F08E828F83A3A3A3A3A335
:105A1300E060248E828F83A3858208858309E0F862
:105A2300E50A28F582E4350B125AB2A3A3F08508E0
:105A330082850983E004F0EEFAEFFB1226FBE9F519
:105A43000D70498E828F83A3A3A3A3A3A3125AAC81
:105A5300A37014E0F8E50A28FAE4350BFB125A9414
:105A6300126712E50C801A125ABDE8240EF8500191
:105A730009EE241D1261F1125AE1F9E50CC39924D0
:105A8300F2C398C0E0EE12634BD0E0F0A90D0248D8
:105A9300F3EE241DF582E43FF58322EE125AA3228E
:105AA300240BF582E43FF58322E08E828F8322F577
:105AB30083E08E828F83A3A3A32285820885830933
:105AC300E0F8E50A28F8E4350BF922E0FA850A82C2
:105AD300850B83A3A3A3221269331226F522901503
:105AE300F0E0F91225DBE9F8850882850983E022D5
:105AF300F0A3E9125AFA22F0850A82850B83A3A345
:105B0300A3A322C082C0837A787B1679E2122197FD
:105B13007A787B1602594FC082C0839015F80259D8
:105B23004CC082C0839015FB02594CC082C083795C
:105B33004A12219702594F74F6120B3A901680E0DD
